{
  "_format": "hh-sol-artifact-1",
  "contractName": "TextNFT",
  "sourceName": "contracts/TextNFT.sol",
  "abi": [
    {
      "inputs": [],
      "stateMutability": "nonpayable",
      "type": "constructor"
    },
    {
      "anonymous": false,
      "inputs": [
        {
          "indexed": true,
          "internalType": "address",
          "name": "owner",
          "type": "address"
        },
        {
          "indexed": true,
          "internalType": "address",
          "name": "approved",
          "type": "address"
        },
        {
          "indexed": true,
          "internalType": "uint256",
          "name": "tokenId",
          "type": "uint256"
        }
      ],
      "name": "Approval",
      "type": "event"
    },
    {
      "anonymous": false,
      "inputs": [
        {
          "indexed": true,
          "internalType": "address",
          "name": "owner",
          "type": "address"
        },
        {
          "indexed": true,
          "internalType": "address",
          "name": "operator",
          "type": "address"
        },
        {
          "indexed": false,
          "internalType": "bool",
          "name": "approved",
          "type": "bool"
        }
      ],
      "name": "ApprovalForAll",
      "type": "event"
    },
    {
      "anonymous": false,
      "inputs": [
        {
          "indexed": false,
          "internalType": "address",
          "name": "sender",
          "type": "address"
        },
        {
          "indexed": false,
          "internalType": "uint256",
          "name": "tokenId",
          "type": "uint256"
        }
      ],
      "name": "NewEpicNFTMinted",
      "type": "event"
    },
    {
      "anonymous": false,
      "inputs": [
        {
          "indexed": true,
          "internalType": "address",
          "name": "from",
          "type": "address"
        },
        {
          "indexed": true,
          "internalType": "address",
          "name": "to",
          "type": "address"
        },
        {
          "indexed": true,
          "internalType": "uint256",
          "name": "tokenId",
          "type": "uint256"
        }
      ],
      "name": "Transfer",
      "type": "event"
    },
    {
      "inputs": [
        {
          "internalType": "address",
          "name": "to",
          "type": "address"
        },
        {
          "internalType": "uint256",
          "name": "tokenId",
          "type": "uint256"
        }
      ],
      "name": "approve",
      "outputs": [],
      "stateMutability": "nonpayable",
      "type": "function"
    },
    {
      "inputs": [
        {
          "internalType": "address",
          "name": "owner",
          "type": "address"
        }
      ],
      "name": "balanceOf",
      "outputs": [
        {
          "internalType": "uint256",
          "name": "",
          "type": "uint256"
        }
      ],
      "stateMutability": "view",
      "type": "function"
    },
    {
      "inputs": [
        {
          "internalType": "uint256",
          "name": "tokenId",
          "type": "uint256"
        }
      ],
      "name": "getApproved",
      "outputs": [
        {
          "internalType": "address",
          "name": "",
          "type": "address"
        }
      ],
      "stateMutability": "view",
      "type": "function"
    },
    {
      "inputs": [
        {
          "internalType": "address",
          "name": "owner",
          "type": "address"
        },
        {
          "internalType": "address",
          "name": "operator",
          "type": "address"
        }
      ],
      "name": "isApprovedForAll",
      "outputs": [
        {
          "internalType": "bool",
          "name": "",
          "type": "bool"
        }
      ],
      "stateMutability": "view",
      "type": "function"
    },
    {
      "inputs": [],
      "name": "makeATextNFT",
      "outputs": [],
      "stateMutability": "nonpayable",
      "type": "function"
    },
    {
      "inputs": [],
      "name": "name",
      "outputs": [
        {
          "internalType": "string",
          "name": "",
          "type": "string"
        }
      ],
      "stateMutability": "view",
      "type": "function"
    },
    {
      "inputs": [
        {
          "internalType": "uint256",
          "name": "tokenId",
          "type": "uint256"
        }
      ],
      "name": "ownerOf",
      "outputs": [
        {
          "internalType": "address",
          "name": "",
          "type": "address"
        }
      ],
      "stateMutability": "view",
      "type": "function"
    },
    {
      "inputs": [
        {
          "internalType": "uint256",
          "name": "tokenId",
          "type": "uint256"
        }
      ],
      "name": "pickRandomFirstWord",
      "outputs": [
        {
          "internalType": "string",
          "name": "",
          "type": "string"
        }
      ],
      "stateMutability": "view",
      "type": "function"
    },
    {
      "inputs": [
        {
          "internalType": "uint256",
          "name": "tokenId",
          "type": "uint256"
        }
      ],
      "name": "pickRandomSecondWord",
      "outputs": [
        {
          "internalType": "string",
          "name": "",
          "type": "string"
        }
      ],
      "stateMutability": "view",
      "type": "function"
    },
    {
      "inputs": [
        {
          "internalType": "uint256",
          "name": "tokenId",
          "type": "uint256"
        }
      ],
      "name": "pickRandomThirdWord",
      "outputs": [
        {
          "internalType": "string",
          "name": "",
          "type": "string"
        }
      ],
      "stateMutability": "view",
      "type": "function"
    },
    {
      "inputs": [
        {
          "internalType": "address",
          "name": "from",
          "type": "address"
        },
        {
          "internalType": "address",
          "name": "to",
          "type": "address"
        },
        {
          "internalType": "uint256",
          "name": "tokenId",
          "type": "uint256"
        }
      ],
      "name": "safeTransferFrom",
      "outputs": [],
      "stateMutability": "nonpayable",
      "type": "function"
    },
    {
      "inputs": [
        {
          "internalType": "address",
          "name": "from",
          "type": "address"
        },
        {
          "internalType": "address",
          "name": "to",
          "type": "address"
        },
        {
          "internalType": "uint256",
          "name": "tokenId",
          "type": "uint256"
        },
        {
          "internalType": "bytes",
          "name": "_data",
          "type": "bytes"
        }
      ],
      "name": "safeTransferFrom",
      "outputs": [],
      "stateMutability": "nonpayable",
      "type": "function"
    },
    {
      "inputs": [
        {
          "internalType": "address",
          "name": "operator",
          "type": "address"
        },
        {
          "internalType": "bool",
          "name": "approved",
          "type": "bool"
        }
      ],
      "name": "setApprovalForAll",
      "outputs": [],
      "stateMutability": "nonpayable",
      "type": "function"
    },
    {
      "inputs": [
        {
          "internalType": "bytes4",
          "name": "interfaceId",
          "type": "bytes4"
        }
      ],
      "name": "supportsInterface",
      "outputs": [
        {
          "internalType": "bool",
          "name": "",
          "type": "bool"
        }
      ],
      "stateMutability": "view",
      "type": "function"
    },
    {
      "inputs": [],
      "name": "symbol",
      "outputs": [
        {
          "internalType": "string",
          "name": "",
          "type": "string"
        }
      ],
      "stateMutability": "view",
      "type": "function"
    },
    {
      "inputs": [
        {
          "internalType": "uint256",
          "name": "tokenId",
          "type": "uint256"
        }
      ],
      "name": "tokenURI",
      "outputs": [
        {
          "internalType": "string",
          "name": "",
          "type": "string"
        }
      ],
      "stateMutability": "view",
      "type": "function"
    },
    {
      "inputs": [
        {
          "internalType": "address",
          "name": "from",
          "type": "address"
        },
        {
          "internalType": "address",
          "name": "to",
          "type": "address"
        },
        {
          "internalType": "uint256",
          "name": "tokenId",
          "type": "uint256"
        }
      ],
      "name": "transferFrom",
      "outputs": [],
      "stateMutability": "nonpayable",
      "type": "function"
    }
  ],
  "bytecode": "0x608060405260405180610160016040528061012f81526020016200439861012f913960089080519060200190620000389291906200067e565b506040518060c001604052806040518060400160405280600481526020017f537461790000000000000000000000000000000000000000000000000000000081525081526020016040518060400160405280600581526020017f547275737400000000000000000000000000000000000000000000000000000081525081526020016040518060400160405280600481526020017f4b6565700000000000000000000000000000000000000000000000000000000081525081526020016040518060400160405280600481526020017f507573680000000000000000000000000000000000000000000000000000000081525081526020016040518060400160405280600481526020017f4b6e6f770000000000000000000000000000000000000000000000000000000081525081526020016040518060400160405280600281526020017f446f0000000000000000000000000000000000000000000000000000000000008152508152506009906006620001b69291906200070f565b506040518060c001604052806040518060400160405280600281526020017f4d6500000000000000000000000000000000000000000000000000000000000081525081526020016040518060400160405280600381526020017f416c6c000000000000000000000000000000000000000000000000000000000081525081526020016040518060400160405280600581526020017f466163747300000000000000000000000000000000000000000000000000000081525081526020016040518060400160405280600381526020017f546865000000000000000000000000000000000000000000000000000000000081525081526020016040518060400160405280600281526020017f496e00000000000000000000000000000000000000000000000000000000000081525081526020016040518060400160405280600281526020017f5765000000000000000000000000000000000000000000000000000000000000815250815250600a906006620003349291906200070f565b506040518060c001604052806040518060400160405280600481526020017f4c6f76650000000000000000000000000000000000000000000000000000000081525081526020016040518060400160405280600481526020017f576179730000000000000000000000000000000000000000000000000000000081525081526020016040518060400160405280600481526020017f53656c660000000000000000000000000000000000000000000000000000000081525081526020016040518060400160405280600581526020017f546f75636800000000000000000000000000000000000000000000000000000081525081526020016040518060400160405280600681526020017f4c696d697473000000000000000000000000000000000000000000000000000081525081526020016040518060400160405280600681526020017f506c656e74790000000000000000000000000000000000000000000000000000815250815250600b906006620004b29291906200070f565b50348015620004c057600080fd5b506040518060400160405280600781526020017f546578744e4654000000000000000000000000000000000000000000000000008152506040518060400160405280600681526020017f4c504e54585400000000000000000000000000000000000000000000000000008152508160009080519060200190620005459291906200067e565b5080600190805190602001906200055e9291906200067e565b505050620005ac6040518060400160405280601e81526020017f54686973206973206d79204e465420636f6e74726163742e20576f6168210000815250620005b260201b620011661760201c565b62000930565b6200065281604051602401620005c9919062000844565b6040516020818303038152906040527f41304fac000000000000000000000000000000000000000000000000000000007bffffffffffffffffffffffffffffffffffffffffffffffffffffffff19166020820180517bffffffffffffffffffffffffffffffffffffffffffffffffffffffff83818316178352505050506200065560201b60201c565b50565b60008151905060006a636f6e736f6c652e6c6f679050602083016000808483855afa5050505050565b8280546200068c90620008ba565b90600052602060002090601f016020900481019282620006b05760008555620006fc565b82601f10620006cb57805160ff1916838001178555620006fc565b82800160010185558215620006fc579182015b82811115620006fb578251825591602001919060010190620006de565b5b5090506200070b919062000776565b5090565b82805482825590600052602060002090810192821562000763579160200282015b8281111562000762578251829080519060200190620007519291906200067e565b509160200191906001019062000730565b5b50905062000772919062000795565b5090565b5b808211156200079157600081600090555060010162000777565b5090565b5b80821115620007b95760008181620007af9190620007bd565b5060010162000796565b5090565b508054620007cb90620008ba565b6000825580601f10620007df575062000800565b601f016020900490600052602060002090810190620007ff919062000776565b5b50565b6000620008108262000868565b6200081c818562000873565b93506200082e81856020860162000884565b62000839816200091f565b840191505092915050565b6000602082019050818103600083015262000860818462000803565b905092915050565b600081519050919050565b600082825260208201905092915050565b60005b83811015620008a457808201518184015260208101905062000887565b83811115620008b4576000848401525b50505050565b60006002820490506001821680620008d357607f821691505b60208210811415620008ea57620008e9620008f0565b5b50919050565b7f4e487b7100000000000000000000000000000000000000000000000000000000600052602260045260246000fd5b6000601f19601f8301169050919050565b613a5880620009406000396000f3fe608060405234801561001057600080fd5b506004361061010b5760003560e01c80636352211e116100a2578063b187301f11610071578063b187301f146102b6578063b88d4fde146102e6578063c575757a14610302578063c87b56dd14610332578063e985e9c5146103625761010b565b80636352211e1461021c57806370a082311461024c57806395d89b411461027c578063a22cb4651461029a5761010b565b806323b872dd116100de57806323b872dd146101aa5780632de38d68146101c657806342842e0e146101f65780635d8b867b146102125761010b565b806301ffc9a71461011057806306fdde0314610140578063081812fc1461015e578063095ea7b31461018e575b600080fd5b61012a60048036038101906101259190612566565b610392565b6040516101379190612c70565b60405180910390f35b610148610474565b6040516101559190612c8b565b60405180910390f35b610178600480360381019061017391906125b8565b610506565b6040516101859190612be0565b60405180910390f35b6101a860048036038101906101a3919061252a565b61058b565b005b6101c460048036038101906101bf9190612424565b6106a3565b005b6101e060048036038101906101db91906125b8565b610703565b6040516101ed9190612c8b565b60405180910390f35b610210600480360381019061020b9190612424565b610821565b005b61021a610841565b005b610236600480360381019061023191906125b8565b610ad0565b6040516102439190612be0565b60405180910390f35b610266600480360381019061026191906123bf565b610b82565b6040516102739190612eeb565b60405180910390f35b610284610c3a565b6040516102919190612c8b565b60405180910390f35b6102b460048036038101906102af91906124ee565b610ccc565b005b6102d060048036038101906102cb91906125b8565b610ce2565b6040516102dd9190612c8b565b60405180910390f35b61030060048036038101906102fb9190612473565b610e00565b005b61031c600480360381019061031791906125b8565b610e62565b6040516103299190612c8b565b60405180910390f35b61034c600480360381019061034791906125b8565b610f80565b6040516103599190612c8b565b60405180910390f35b61037c600480360381019061037791906123e8565b6110d2565b6040516103899190612c70565b60405180910390f35b60007f80ac58cd000000000000000000000000000000000000000000000000000000007bffffffffffffffffffffffffffffffffffffffffffffffffffffffff1916827bffffffffffffffffffffffffffffffffffffffffffffffffffffffff1916148061045d57507f5b5e139f000000000000000000000000000000000000000000000000000000007bffffffffffffffffffffffffffffffffffffffffffffffffffffffff1916827bffffffffffffffffffffffffffffffffffffffffffffffffffffffff1916145b8061046d575061046c826111ff565b5b9050919050565b6060600080546104839061317f565b80601f01602080910402602001604051908101604052809291908181526020018280546104af9061317f565b80156104fc5780601f106104d1576101008083540402835291602001916104fc565b820191906000526020600020905b8154815290600101906020018083116104df57829003601f168201915b5050505050905090565b600061051182611269565b610550576040517f08c379a000000000000000000000000000000000000000000000000000000000815260040161054790612e4b565b60405180910390fd5b6004600083815260200190815260200160002060009054906101000a900473ffffffffffffffffffffffffffffffffffffffff169050919050565b600061059682610ad0565b90508073ffffffffffffffffffffffffffffffffffffffff168373ffffffffffffffffffffffffffffffffffffffff161415610607576040517f08c379a00000000000000000000000000000000000000000000000000000000081526004016105fe90612eab565b60405180910390fd5b8073ffffffffffffffffffffffffffffffffffffffff166106266112d5565b73ffffffffffffffffffffffffffffffffffffffff16148061065557506106548161064f6112d5565b6110d2565b5b610694576040517f08c379a000000000000000000000000000000000000000000000000000000000815260040161068b90612d8b565b60405180910390fd5b61069e83836112dd565b505050565b6106b46106ae6112d5565b82611396565b6106f3576040517f08c379a00000000000000000000000000000000000000000000000000000000081526004016106ea90612ecb565b60405180910390fd5b6106fe838383611474565b505050565b60606000610737610713846116d0565b6040516020016107239190612b9c565b60405160208183030381529060405261187d565b90506009805490508161074a919061322b565b905060098181548110610786577f4e487b7100000000000000000000000000000000000000000000000000000000600052603260045260246000fd5b90600052602060002001805461079b9061317f565b80601f01602080910402602001604051908101604052809291908181526020018280546107c79061317f565b80156108145780601f106107e957610100808354040283529160200191610814565b820191906000526020600020905b8154815290600101906020018083116107f757829003601f168201915b5050505050915050919050565b61083c83838360405180602001604052806000815250610e00565b505050565b600061084d60076118b0565b9050600061085a82610703565b9050600061086783610ce2565b9050600061087484610e62565b9050600083838360405160200161088d93929190612ab3565b604051602081830303815290604052905060006008826040516020016108b4929190612ae4565b60405160208183030381529060405290506109036040518060400160405280601581526020017f0a2d2d2d2d2d2d2d2d2d2d2d2d2d2d2d2d2d2d2d2d0000000000000000000000815250611166565b61090c81611166565b61094a6040518060400160405280601581526020017f2d2d2d2d2d2d2d2d2d2d2d2d2d2d2d2d2d2d2d2d0a0000000000000000000000815250611166565b600061097e83610959846118be565b60405160200161096a929190612b57565b6040516020818303038152906040526118be565b90506000816040516020016109939190612bbe565b60405160208183030381529060405290506109e26040518060400160405280601581526020017f0a2d2d2d2d2d2d2d2d2d2d2d2d2d2d2d2d2d2d2d2d0000000000000000000000815250611166565b6109eb81611166565b610a296040518060400160405280601581526020017f2d2d2d2d2d2d2d2d2d2d2d2d2d2d2d2d2d2d2d2d0a0000000000000000000000815250611166565b610a333389611a7c565b610a3d8882611a9a565b610a606040518060600160405280602581526020016139be602591398933611b0e565b610a6a6007611bad565b610a8d6040518060600160405280602581526020016139be602591398933611b0e565b7febb98688741ffa4c7589bf325de30cf7becb63de567842e1ccdb6cb949fdc82c3389604051610abe929190612c47565b60405180910390a15050505050505050565b6000806002600084815260200190815260200160002060009054906101000a900473ffffffffffffffffffffffffffffffffffffffff169050600073ffffffffffffffffffffffffffffffffffffffff168173ffffffffffffffffffffffffffffffffffffffff161415610b79576040517f08c379a0000000000000000000000000000000000000000000000000000000008152600401610b7090612dcb565b60405180910390fd5b80915050919050565b60008073ffffffffffffffffffffffffffffffffffffffff168273ffffffffffffffffffffffffffffffffffffffff161415610bf3576040517f08c379a0000000000000000000000000000000000000000000000000000000008152600401610bea90612dab565b60405180910390fd5b600360008373ffffffffffffffffffffffffffffffffffffffff1673ffffffffffffffffffffffffffffffffffffffff168152602001908152602001600020549050919050565b606060018054610c499061317f565b80601f0160208091040260200160405190810160405280929190818152602001828054610c759061317f565b8015610cc25780601f10610c9757610100808354040283529160200191610cc2565b820191906000526020600020905b815481529060010190602001808311610ca557829003601f168201915b5050505050905090565b610cde610cd76112d5565b8383611bc3565b5050565b60606000610d16610cf2846116d0565b604051602001610d029190612b35565b60405160208183030381529060405261187d565b9050600a8054905081610d29919061322b565b9050600a8181548110610d65577f4e487b7100000000000000000000000000000000000000000000000000000000600052603260045260246000fd5b906000526020600020018054610d7a9061317f565b80601f0160208091040260200160405190810160405280929190818152602001828054610da69061317f565b8015610df35780601f10610dc857610100808354040283529160200191610df3565b820191906000526020600020905b815481529060010190602001808311610dd657829003601f168201915b5050505050915050919050565b610e11610e0b6112d5565b83611396565b610e50576040517f08c379a0000000000000000000000000000000000000000000000000000000008152600401610e4790612ecb565b60405180910390fd5b610e5c84848484611d30565b50505050565b60606000610e96610e72846116d0565b604051602001610e829190612b13565b60405160208183030381529060405261187d565b9050600b8054905081610ea9919061322b565b9050600b8181548110610ee5577f4e487b7100000000000000000000000000000000000000000000000000000000600052603260045260246000fd5b906000526020600020018054610efa9061317f565b80601f0160208091040260200160405190810160405280929190818152602001828054610f269061317f565b8015610f735780601f10610f4857610100808354040283529160200191610f73565b820191906000526020600020905b815481529060010190602001808311610f5657829003601f168201915b5050505050915050919050565b6060610f8b82611269565b610fca576040517f08c379a0000000000000000000000000000000000000000000000000000000008152600401610fc190612e2b565b60405180910390fd5b6000600660008481526020019081526020016000208054610fea9061317f565b80601f01602080910402602001604051908101604052809291908181526020018280546110169061317f565b80156110635780601f1061103857610100808354040283529160200191611063565b820191906000526020600020905b81548152906001019060200180831161104657829003601f168201915b505050505090506000611074611d8c565b905060008151141561108a5781925050506110cd565b6000825111156110bf5780826040516020016110a7929190612a8f565b604051602081830303815290604052925050506110cd565b6110c884611da3565b925050505b919050565b6000600560008473ffffffffffffffffffffffffffffffffffffffff1673ffffffffffffffffffffffffffffffffffffffff16815260200190815260200160002060008373ffffffffffffffffffffffffffffffffffffffff1673ffffffffffffffffffffffffffffffffffffffff16815260200190815260200160002060009054906101000a900460ff16905092915050565b6111fc8160405160240161117a9190612c8b565b6040516020818303038152906040527f41304fac000000000000000000000000000000000000000000000000000000007bffffffffffffffffffffffffffffffffffffffffffffffffffffffff19166020820180517bffffffffffffffffffffffffffffffffffffffffffffffffffffffff8381831617835250505050611e4a565b50565b60007f01ffc9a7000000000000000000000000000000000000000000000000000000007bffffffffffffffffffffffffffffffffffffffffffffffffffffffff1916827bffffffffffffffffffffffffffffffffffffffffffffffffffffffff1916149050919050565b60008073ffffffffffffffffffffffffffffffffffffffff166002600084815260200190815260200160002060009054906101000a900473ffffffffffffffffffffffffffffffffffffffff1673ffffffffffffffffffffffffffffffffffffffff1614159050919050565b600033905090565b816004600083815260200190815260200160002060006101000a81548173ffffffffffffffffffffffffffffffffffffffff021916908373ffffffffffffffffffffffffffffffffffffffff160217905550808273ffffffffffffffffffffffffffffffffffffffff1661135083610ad0565b73ffffffffffffffffffffffffffffffffffffffff167f8c5be1e5ebec7d5bd14f71427d1e84f3dd0314c0f7b2291e5b200ac8c7c3b92560405160405180910390a45050565b60006113a182611269565b6113e0576040517f08c379a00000000000000000000000000000000000000000000000000000000081526004016113d790612d6b565b60405180910390fd5b60006113eb83610ad0565b90508073ffffffffffffffffffffffffffffffffffffffff168473ffffffffffffffffffffffffffffffffffffffff16148061145a57508373ffffffffffffffffffffffffffffffffffffffff1661144284610506565b73ffffffffffffffffffffffffffffffffffffffff16145b8061146b575061146a81856110d2565b5b91505092915050565b8273ffffffffffffffffffffffffffffffffffffffff1661149482610ad0565b73ffffffffffffffffffffffffffffffffffffffff16146114ea576040517f08c379a00000000000000000000000000000000000000000000000000000000081526004016114e190612e6b565b60405180910390fd5b600073ffffffffffffffffffffffffffffffffffffffff168273ffffffffffffffffffffffffffffffffffffffff16141561155a576040517f08c379a000000000000000000000000000000000000000000000000000000000815260040161155190612d2b565b60405180910390fd5b611565838383611e73565b6115706000826112dd565b6001600360008573ffffffffffffffffffffffffffffffffffffffff1673ffffffffffffffffffffffffffffffffffffffff16815260200190815260200160002060008282546115c09190613095565b925050819055506001600360008473ffffffffffffffffffffffffffffffffffffffff1673ffffffffffffffffffffffffffffffffffffffff16815260200190815260200160002060008282546116179190612fb4565b92505081905550816002600083815260200190815260200160002060006101000a81548173ffffffffffffffffffffffffffffffffffffffff021916908373ffffffffffffffffffffffffffffffffffffffff160217905550808273ffffffffffffffffffffffffffffffffffffffff168473ffffffffffffffffffffffffffffffffffffffff167fddf252ad1be2c89b69c2b068fc378daa952ba7f163c4a11628f55a4df523b3ef60405160405180910390a4505050565b60606000821415611718576040518060400160405280600181526020017f30000000000000000000000000000000000000000000000000000000000000008152509050611878565b600082905060005b6000821461174a578080611733906131e2565b915050600a82611743919061300a565b9150611720565b60008167ffffffffffffffff81111561178c577f4e487b7100000000000000000000000000000000000000000000000000000000600052604160045260246000fd5b6040519080825280601f01601f1916602001820160405280156117be5781602001600182028036833780820191505090505b5090505b60008514611871576001826117d79190613095565b9150600a856117e6919061322b565b60306117f29190612fb4565b60f81b81838151811061182e577f4e487b7100000000000000000000000000000000000000000000000000000000600052603260045260246000fd5b60200101907effffffffffffffffffffffffffffffffffffffffffffffffffffffffffffff1916908160001a905350600a8561186a919061300a565b94506117c2565b8093505050505b919050565b6000816040516020016118909190612a78565b6040516020818303038152906040528051906020012060001c9050919050565b600081600001549050919050565b606060008251905060008114156118e75760405180602001604052806000815250915050611a77565b600060036002836118f89190612fb4565b611902919061300a565b600461190e919061303b565b9050600060208261191f9190612fb4565b67ffffffffffffffff81111561195e577f4e487b7100000000000000000000000000000000000000000000000000000000600052604160045260246000fd5b6040519080825280601f01601f1916602001820160405280156119905781602001600182028036833780820191505090505b50905060006040518060600160405280604081526020016139e3604091399050600181016020830160005b86811015611a345760038101905062ffffff818a015116603f8160121c168401518060081b905060ff603f83600c1c1686015116810190508060081b905060ff603f8360061c1686015116810190508060081b905060ff603f831686015116810190508060e01b905080845260048401935050506119bb565b506003860660018114611a4e5760028114611a5e57611a69565b613d3d60f01b6002830352611a69565b603d60f81b60018303525b508484525050819450505050505b919050565b611a96828260405180602001604052806000815250611e78565b5050565b611aa382611269565b611ae2576040517f08c379a0000000000000000000000000000000000000000000000000000000008152600401611ad990612deb565b60405180910390fd5b80600660008481526020019081526020016000209080519060200190611b0992919061224b565b505050565b611ba8838383604051602401611b2693929190612cad565b6040516020818303038152906040527fe3849f79000000000000000000000000000000000000000000000000000000007bffffffffffffffffffffffffffffffffffffffffffffffffffffffff19166020820180517bffffffffffffffffffffffffffffffffffffffffffffffffffffffff8381831617835250505050611e4a565b505050565b6001816000016000828254019250508190555050565b8173ffffffffffffffffffffffffffffffffffffffff168373ffffffffffffffffffffffffffffffffffffffff161415611c32576040517f08c379a0000000000000000000000000000000000000000000000000000000008152600401611c2990612d4b565b60405180910390fd5b80600560008573ffffffffffffffffffffffffffffffffffffffff1673ffffffffffffffffffffffffffffffffffffffff16815260200190815260200160002060008473ffffffffffffffffffffffffffffffffffffffff1673ffffffffffffffffffffffffffffffffffffffff16815260200190815260200160002060006101000a81548160ff0219169083151502179055508173ffffffffffffffffffffffffffffffffffffffff168373ffffffffffffffffffffffffffffffffffffffff167f17307eab39ab6107e8899845ad3d59bd9653f200f220920489ca2b5937696c3183604051611d239190612c70565b60405180910390a3505050565b611d3b848484611474565b611d4784848484611ed3565b611d86576040517f08c379a0000000000000000000000000000000000000000000000000000000008152600401611d7d90612ceb565b60405180910390fd5b50505050565b606060405180602001604052806000815250905090565b6060611dae82611269565b611ded576040517f08c379a0000000000000000000000000000000000000000000000000000000008152600401611de490612e8b565b60405180910390fd5b6000611df7611d8c565b90506000815111611e175760405180602001604052806000815250611e42565b80611e21846116d0565b604051602001611e32929190612a8f565b6040516020818303038152906040525b915050919050565b60008151905060006a636f6e736f6c652e6c6f679050602083016000808483855afa5050505050565b505050565b611e82838361206a565b611e8f6000848484611ed3565b611ece576040517f08c379a0000000000000000000000000000000000000000000000000000000008152600401611ec590612ceb565b60405180910390fd5b505050565b6000611ef48473ffffffffffffffffffffffffffffffffffffffff16612238565b1561205d578373ffffffffffffffffffffffffffffffffffffffff1663150b7a02611f1d6112d5565b8786866040518563ffffffff1660e01b8152600401611f3f9493929190612bfb565b602060405180830381600087803b158015611f5957600080fd5b505af1925050508015611f8a57506040513d601f19601f82011682018060405250810190611f87919061258f565b60015b61200d573d8060008114611fba576040519150601f19603f3d011682016040523d82523d6000602084013e611fbf565b606091505b50600081511415612005576040517f08c379a0000000000000000000000000000000000000000000000000000000008152600401611ffc90612ceb565b60405180910390fd5b805181602001fd5b63150b7a0260e01b7bffffffffffffffffffffffffffffffffffffffffffffffffffffffff1916817bffffffffffffffffffffffffffffffffffffffffffffffffffffffff191614915050612062565b600190505b949350505050565b600073ffffffffffffffffffffffffffffffffffffffff168273ffffffffffffffffffffffffffffffffffffffff1614156120da576040517f08c379a00000000000000000000000000000000000000000000000000000000081526004016120d190612e0b565b60405180910390fd5b6120e381611269565b15612123576040517f08c379a000000000000000000000000000000000000000000000000000000000815260040161211a90612d0b565b60405180910390fd5b61212f60008383611e73565b6001600360008473ffffffffffffffffffffffffffffffffffffffff1673ffffffffffffffffffffffffffffffffffffffff168152602001908152602001600020600082825461217f9190612fb4565b92505081905550816002600083815260200190815260200160002060006101000a81548173ffffffffffffffffffffffffffffffffffffffff021916908373ffffffffffffffffffffffffffffffffffffffff160217905550808273ffffffffffffffffffffffffffffffffffffffff16600073ffffffffffffffffffffffffffffffffffffffff167fddf252ad1be2c89b69c2b068fc378daa952ba7f163c4a11628f55a4df523b3ef60405160405180910390a45050565b600080823b905060008111915050919050565b8280546122579061317f565b90600052602060002090601f01602090048101928261227957600085556122c0565b82601f1061229257805160ff19168380011785556122c0565b828001600101855582156122c0579182015b828111156122bf5782518255916020019190600101906122a4565b5b5090506122cd91906122d1565b5090565b5b808211156122ea5760008160009055506001016122d2565b5090565b60006123016122fc84612f2b565b612f06565b90508281526020810184848401111561231957600080fd5b61232484828561313d565b509392505050565b60008135905061233b81613961565b92915050565b60008135905061235081613978565b92915050565b6000813590506123658161398f565b92915050565b60008151905061237a8161398f565b92915050565b600082601f83011261239157600080fd5b81356123a18482602086016122ee565b91505092915050565b6000813590506123b9816139a6565b92915050565b6000602082840312156123d157600080fd5b60006123df8482850161232c565b91505092915050565b600080604083850312156123fb57600080fd5b60006124098582860161232c565b925050602061241a8582860161232c565b9150509250929050565b60008060006060848603121561243957600080fd5b60006124478682870161232c565b93505060206124588682870161232c565b9250506040612469868287016123aa565b9150509250925092565b6000806000806080858703121561248957600080fd5b60006124978782880161232c565b94505060206124a88782880161232c565b93505060406124b9878288016123aa565b925050606085013567ffffffffffffffff8111156124d657600080fd5b6124e287828801612380565b91505092959194509250565b6000806040838503121561250157600080fd5b600061250f8582860161232c565b925050602061252085828601612341565b9150509250929050565b6000806040838503121561253d57600080fd5b600061254b8582860161232c565b925050602061255c858286016123aa565b9150509250929050565b60006020828403121561257857600080fd5b600061258684828501612356565b91505092915050565b6000602082840312156125a157600080fd5b60006125af8482850161236b565b91505092915050565b6000602082840312156125ca57600080fd5b60006125d8848285016123aa565b91505092915050565b6125ea816130c9565b82525050565b6125f9816130db565b82525050565b600061260a82612f71565b6126148185612f87565b935061262481856020860161314c565b61262d81613318565b840191505092915050565b600061264382612f7c565b61264d8185612f98565b935061265d81856020860161314c565b61266681613318565b840191505092915050565b600061267c82612f7c565b6126868185612fa9565b935061269681856020860161314c565b80840191505092915050565b600081546126af8161317f565b6126b98186612fa9565b945060018216600081146126d457600181146126e557612718565b60ff19831686528186019350612718565b6126ee85612f5c565b60005b83811015612710578154818901526001820191506020810190506126f1565b838801955050505b50505092915050565b600061272e603283612f98565b915061273982613329565b604082019050919050565b6000612751601c83612f98565b915061275c82613378565b602082019050919050565b6000612774600a83612fa9565b915061277f826133a1565b600a82019050919050565b6000612797602483612f98565b91506127a2826133ca565b604082019050919050565b60006127ba601983612f98565b91506127c582613419565b602082019050919050565b60006127dd606383612fa9565b91506127e882613442565b606382019050919050565b6000612800600b83612fa9565b915061280b826134dd565b600b82019050919050565b6000612823602c83612f98565b915061282e82613506565b604082019050919050565b6000612846600d83612fa9565b915061285182613555565b600d82019050919050565b6000612869603883612f98565b91506128748261357e565b604082019050919050565b600061288c602a83612f98565b9150612897826135cd565b604082019050919050565b60006128af602983612f98565b91506128ba8261361c565b604082019050919050565b60006128d2602e83612f98565b91506128dd8261366b565b604082019050919050565b60006128f5600283612fa9565b9150612900826136ba565b600282019050919050565b6000612918602083612f98565b9150612923826136e3565b602082019050919050565b600061293b603183612f98565b91506129468261370c565b604082019050919050565b600061295e602c83612f98565b91506129698261375b565b604082019050919050565b6000612981602983612f98565b915061298c826137aa565b604082019050919050565b60006129a4602f83612f98565b91506129af826137f9565b604082019050919050565b60006129c7600a83612fa9565b91506129d282613848565b600a82019050919050565b60006129ea602183612f98565b91506129f582613871565b604082019050919050565b6000612a0d600a83612fa9565b9150612a18826138c0565b600a82019050919050565b6000612a30601d83612fa9565b9150612a3b826138e9565b601d82019050919050565b6000612a53603183612f98565b9150612a5e82613912565b604082019050919050565b612a7281613133565b82525050565b6000612a848284612671565b915081905092915050565b6000612a9b8285612671565b9150612aa78284612671565b91508190509392505050565b6000612abf8286612671565b9150612acb8285612671565b9150612ad78284612671565b9150819050949350505050565b6000612af082856126a2565b9150612afc8284612671565b9150612b0782612839565b91508190509392505050565b6000612b1e82612767565b9150612b2a8284612671565b915081905092915050565b6000612b40826127f3565b9150612b4c8284612671565b915081905092915050565b6000612b62826129ba565b9150612b6e8285612671565b9150612b79826127d0565b9150612b858284612671565b9150612b90826128e8565b91508190509392505050565b6000612ba782612a00565b9150612bb38284612671565b915081905092915050565b6000612bc982612a23565b9150612bd58284612671565b915081905092915050565b6000602082019050612bf560008301846125e1565b92915050565b6000608082019050612c1060008301876125e1565b612c1d60208301866125e1565b612c2a6040830185612a69565b8181036060830152612c3c81846125ff565b905095945050505050565b6000604082019050612c5c60008301856125e1565b612c696020830184612a69565b9392505050565b6000602082019050612c8560008301846125f0565b92915050565b60006020820190508181036000830152612ca58184612638565b905092915050565b60006060820190508181036000830152612cc78186612638565b9050612cd66020830185612a69565b612ce360408301846125e1565b949350505050565b60006020820190508181036000830152612d0481612721565b9050919050565b60006020820190508181036000830152612d2481612744565b9050919050565b60006020820190508181036000830152612d448161278a565b9050919050565b60006020820190508181036000830152612d64816127ad565b9050919050565b60006020820190508181036000830152612d8481612816565b9050919050565b60006020820190508181036000830152612da48161285c565b9050919050565b60006020820190508181036000830152612dc48161287f565b9050919050565b60006020820190508181036000830152612de4816128a2565b9050919050565b60006020820190508181036000830152612e04816128c5565b9050919050565b60006020820190508181036000830152612e248161290b565b9050919050565b60006020820190508181036000830152612e448161292e565b9050919050565b60006020820190508181036000830152612e6481612951565b9050919050565b60006020820190508181036000830152612e8481612974565b9050919050565b60006020820190508181036000830152612ea481612997565b9050919050565b60006020820190508181036000830152612ec4816129dd565b9050919050565b60006020820190508181036000830152612ee481612a46565b9050919050565b6000602082019050612f006000830184612a69565b92915050565b6000612f10612f21565b9050612f1c82826131b1565b919050565b6000604051905090565b600067ffffffffffffffff821115612f4657612f456132e9565b5b612f4f82613318565b9050602081019050919050565b60008190508160005260206000209050919050565b600081519050919050565b600081519050919050565b600082825260208201905092915050565b600082825260208201905092915050565b600081905092915050565b6000612fbf82613133565b9150612fca83613133565b9250827fffffffffffffffffffffffffffffffffffffffffffffffffffffffffffffffff03821115612fff57612ffe61325c565b5b828201905092915050565b600061301582613133565b915061302083613133565b9250826130305761302f61328b565b5b828204905092915050565b600061304682613133565b915061305183613133565b9250817fffffffffffffffffffffffffffffffffffffffffffffffffffffffffffffffff048311821515161561308a5761308961325c565b5b828202905092915050565b60006130a082613133565b91506130ab83613133565b9250828210156130be576130bd61325c565b5b828203905092915050565b60006130d482613113565b9050919050565b60008115159050919050565b60007fffffffff0000000000000000000000000000000000000000000000000000000082169050919050565b600073ffffffffffffffffffffffffffffffffffffffff82169050919050565b6000819050919050565b82818337600083830152505050565b60005b8381101561316a57808201518184015260208101905061314f565b83811115613179576000848401525b50505050565b6000600282049050600182168061319757607f821691505b602082108114156131ab576131aa6132ba565b5b50919050565b6131ba82613318565b810181811067ffffffffffffffff821117156131d9576131d86132e9565b5b80604052505050565b60006131ed82613133565b91507fffffffffffffffffffffffffffffffffffffffffffffffffffffffffffffffff8214156132205761321f61325c565b5b600182019050919050565b600061323682613133565b915061324183613133565b9250826132515761325061328b565b5b828206905092915050565b7f4e487b7100000000000000000000000000000000000000000000000000000000600052601160045260246000fd5b7f4e487b7100000000000000000000000000000000000000000000000000000000600052601260045260246000fd5b7f4e487b7100000000000000000000000000000000000000000000000000000000600052602260045260246000fd5b7f4e487b7100000000000000000000000000000000000000000000000000000000600052604160045260246000fd5b6000601f19601f8301169050919050565b7f4552433732313a207472616e7366657220746f206e6f6e20455243373231526560008201527f63656976657220696d706c656d656e7465720000000000000000000000000000602082015250565b7f4552433732313a20746f6b656e20616c7265616479206d696e74656400000000600082015250565b7f54484952445f574f524400000000000000000000000000000000000000000000600082015250565b7f4552433732313a207472616e7366657220746f20746865207a65726f2061646460008201527f7265737300000000000000000000000000000000000000000000000000000000602082015250565b7f4552433732313a20617070726f766520746f2063616c6c657200000000000000600082015250565b7f222c20226465736372697074696f6e223a20224120686967686c79206163636c60008201527f61696d656420636f6c6c656374696f6e206f6620737175617265732e222c202260208201527f696d616765223a2022646174613a696d6167652f7376672b786d6c3b6261736560408201527f36342c0000000000000000000000000000000000000000000000000000000000606082015250565b7f5345434f4e445f574f5244000000000000000000000000000000000000000000600082015250565b7f4552433732313a206f70657261746f7220717565727920666f72206e6f6e657860008201527f697374656e7420746f6b656e0000000000000000000000000000000000000000602082015250565b7f3c2f746578743e3c2f7376673e00000000000000000000000000000000000000600082015250565b7f4552433732313a20617070726f76652063616c6c6572206973206e6f74206f7760008201527f6e6572206e6f7220617070726f76656420666f7220616c6c0000000000000000602082015250565b7f4552433732313a2062616c616e636520717565727920666f7220746865207a6560008201527f726f206164647265737300000000000000000000000000000000000000000000602082015250565b7f4552433732313a206f776e657220717565727920666f72206e6f6e657869737460008201527f656e7420746f6b656e0000000000000000000000000000000000000000000000602082015250565b7f45524337323155524953746f726167653a2055524920736574206f66206e6f6e60008201527f6578697374656e7420746f6b656e000000000000000000000000000000000000602082015250565b7f227d000000000000000000000000000000000000000000000000000000000000600082015250565b7f4552433732313a206d696e7420746f20746865207a65726f2061646472657373600082015250565b7f45524337323155524953746f726167653a2055524920717565727920666f722060008201527f6e6f6e6578697374656e7420746f6b656e000000000000000000000000000000602082015250565b7f4552433732313a20617070726f76656420717565727920666f72206e6f6e657860008201527f697374656e7420746f6b656e0000000000000000000000000000000000000000602082015250565b7f4552433732313a207472616e73666572206f6620746f6b656e2074686174206960008201527f73206e6f74206f776e0000000000000000000000000000000000000000000000602082015250565b7f4552433732314d657461646174613a2055524920717565727920666f72206e6f60008201527f6e6578697374656e7420746f6b656e0000000000000000000000000000000000602082015250565b7f7b226e616d65223a202200000000000000000000000000000000000000000000600082015250565b7f4552433732313a20617070726f76616c20746f2063757272656e74206f776e6560008201527f7200000000000000000000000000000000000000000000000000000000000000602082015250565b7f46495253545f574f524400000000000000000000000000000000000000000000600082015250565b7f646174613a6170706c69636174696f6e2f6a736f6e3b6261736536342c000000600082015250565b7f4552433732313a207472616e736665722063616c6c6572206973206e6f74206f60008201527f776e6572206e6f7220617070726f766564000000000000000000000000000000602082015250565b61396a816130c9565b811461397557600080fd5b50565b613981816130db565b811461398c57600080fd5b50565b613998816130e7565b81146139a357600080fd5b50565b6139af81613133565b81146139ba57600080fd5b5056fe416e204e465420772f20494420257320686173206265656e206d696e74656420746f2025734142434445464748494a4b4c4d4e4f505152535455565758595a6162636465666768696a6b6c6d6e6f707172737475767778797a303132333435363738392b2fa2646970667358221220dfb8da1253a1f3d5dfd5f3de541b5e3de3f29e6ee844fe643e24d344b01c1b6064736f6c634300080400333c73766720786d6c6e733d27687474703a2f2f7777772e77332e6f72672f323030302f73766727207072657365727665417370656374526174696f3d27784d696e594d696e206d656574272076696577426f783d273020302033353020333530273e3c7374796c653e2e62617365207b2066696c6c3a2077686974653b20666f6e742d66616d696c793a2073657269663b20666f6e742d73697a653a20323470783b207d3c2f7374796c653e3c726563742077696474683d273130302527206865696768743d2731303025272066696c6c3d27626c61636b27202f3e3c7465787420783d273530252720793d273530252720636c6173733d27626173652720646f6d696e616e742d626173656c696e653d276d6964646c652720746578742d616e63686f723d276d6964646c65273e",
  "linkReferences": {},
  "deployedLinkReferences": {}
}